:10000000FE2F00308A000408840A8207003402347C
:10001000043440348034503472346534733473346F
:1000200069346F346E34653420342A3420347034AB
:10003000613472346134203465346E347434723413
:100040006134723420346F347534203423342034D6
:100050007034613472346134203443346F346E341C
:100060006634693467347534723461347234003400
:1000700044346934673469347434653420346F34FB
:100080002034503449344E342034653420346134C3
:100090007034653472347434653420342A34003456
:1000A00044346934673469347434653420346F34CB
:1000B000203449344434203465342034613470347D
:1000C000653472347434653420342A340034413455
:1000D00063346534733473346F342034703465346E
:1000E00072346D3469347434693464346F34213457
:1000F0000034413463346534733473346F342034E2
:100100004E3465346734613464346F3421340034E0
:1008D0008030F9240530C52408000130F924803027
:1008E000F9240130F9244A30C52408000130F924E4
:1008F0008030F9240130F9247330C5240800013018
:10090000F9248030F9240130F9246130C52408002D
:100910000130F9248030F9243230C524C030F92464
:100920000800FA000A307A060319972C982C9E2C9E
:100930007908031D9C2C9D2C9E2C68240800F10036
:100940006400831603139C18A62CA72CA02C7108F6
:100950009B003F30F00070089C051C141A0808002A
:10096000F300F201731CB52CB62CBA2C7008F10000
:100970007108F2070310F00D0310F30C7308031D48
:10098000C22CC32CB22C72080800F800F701D12C3D
:1009900077087807840001201B250130F6007608CF
:1009A000F7077708780784000120003A031DD92C47
:1009B000DA2CC82C0800FC002A307C06031DE12C30
:1009C000E22CF82C79088400023083130006031906
:1009D000EA2CEB2CF82C0230FB00790884007B0811
:1009E00080007A0884008001800A6D24C030F924D8
:1009F0000800F50083120313051475083D258312C2
:100A0000031386110430F400E430F300F30B062DD9
:100A1000F40B062D00008312031305100430F400BC
:100A2000E430F300F30B122DF40B122D00008312AF
:100A3000031305140800F500831203130514750849
:100A40003D258312031386150430F400E430F300CF
:100A5000F30B282DF40B282D00008312031305102F
:100A60000430F400E430F300F30B342DF40B342D98
:100A700000008312031305140800F100831203130E
:100A80000612F2017108F0007208073C013E4A2D7F
:100A90000310F00CFF3E031D482D7018502D542DEF
:100AA000831203138615572D83120313861106161E
:100AB00006120130F0007008F20708307202031CC1
:100AC000622D632D422D0800F200831603139C183B
:100AD0006A2D6B2D652D72089B0070089A003F30BF
:100AE000F10071089C058312031303108B1F792DED
:100AF0007A2D7B2D03148B13831603131C1555308D
:100B00009D00AA309D009C141C1183120313031C2A
:100B10008A2D8B2D8C2D8B17080083120313051043
:100B200086111A30F700F830F600F60B952DF70B0A
:100B3000952D00008312031305143030F92407307B
:100B4000F7007D30F600F60BA32DF70BA32D303008
:100B5000F924C730F600AC2DF60BAB2DAF2DB02D20
:100B60003830F9240830F9240F30F9240130F92401
:100B70003830F9248030F9240800F801F9010A30EE
:100B8000F6007608FB00831203130508F6007608CA
:100B9000FA00802EFC017C08013E84000120F60052
:100BA0007608831203138504861FD72DD82D042EB3
:100BB0001A30F700F830F600F60BDC2DF70BDC2DC1
:100BC000000083120313861FE62DE72D042EFD2D52
:100BD00003307C06031DED2DEE2DF32D2A30F6009B
:100BE0007608FB00FD2D0330F6007608F0007C0847
:100BF000B024013EF7007708FB0083120313861B25
:100C0000022E032EE82D712E061F072E082E2F2EE2
:100C10001A30F700F830F600F60B0C2EF70B0C2EFE
:100C2000000083120313061F162E172E2F2E282EB8
:100C300003307C0603191D2E1E2E282E0330F600CD
:100C40007608F0007C08B024023EF7007708FB002D
:100C500083120313061B2D2E2E2E182E712E861E88
:100C6000322E332E5F2E1A30F700F830F600F60BD6
:100C7000372EF70B372E000083120313861E412EEA
:100C8000422E5F2E582E03307C06031D482E492E1F
:100C90004E2E2330F6007608FB00582E0330F60067
:100CA0007608F0007C08B024033EF7007708FB00CC
:100CB00083120313861A5D2E5E2E432E712E7C083E
:100CC000013E84000120FF3AF600760885050130D8
:100CD000F6007608FC0704307C02031C702E712E8F
:100CE000CB2D1A30F700F830F600F60B752EF70B07
:100CF000752E00000530F8070318F90A0030F907CF
:100D000075087902031D862E74087802031C892E4B
:100D10008A2E902E74087504031D8F2E902E962E09
:100D20000A307B060319952E962ECA2D7A08831257
:100D3000031385007B08080083120313B601B80172
:100D4000B701B101831603138E1507308312031305
:100D50009F003030831603138500E7308600FE3095
:100D600083120313850086018D250130F924C030DC
:100D7000F9240130F9248030F92400309F248312B3
:100D80000313A0002008B0003008A0002008B30022
:100D9000330A031DCC2ECD2ECE2EF12EB401F00140
:100DA0003308A00004300310A00DFF3E031DD32E16
:100DB000340820076425013083120313A0002008A3
:100DC000B40708303402031CE62EE72ECF2E013084
:100DD000A0002008B307330A031DEF2EF02ECE2EFD
:100DE000F12E8830F4001330F500BD258312031373
:100DF000A0002008B9003608A0002008F900390832
:100E00009124363083120313A0002008F9003830F3
:100E1000A1002108FA003908DB24233083120313D0
:100E20003906031D142F152FBC2F02303606031D63
:100E30001A2F1B2FBC2F3803031D1F2F202F2C2FE1
:100E4000C030F9240130F924023083120313A000CA
:100E50002008B8008824BC2F02303806031D312F2B
:100E6000322FBC2F3708A0002008BB0007303B0200
:100E7000031C3B2F3C2F3D2F472F3B08223E840075
:100E8000831380010130A0002008BB07362F3708EC
:100E9000A0002008BB0007303B02031C502F512F3D
:100EA000522F612F3B08293E8400831380010130BB
:100EB000A0002008BB0707303B02031C602F612FF6
:100EC000522FB201B501B50AB02FB201BA01BA0171
:100ED0003A08223E84003508A00004300310A00D1B
:100EE000FF3E031D6E2F3A0820079F248313000640
:100EF000031D7B2F7C2F932F831203133A08293E67
:100F000084003508A00004300310A00DFF3E031D2F
:100F1000842F3A082007083E9F24831300060319F4
:100F2000922F932F982F83120313B201B20AA42F8A
:100F3000013083120313A0002008BA0708303A02D8
:100F4000031CA32FA42F682F3208031DA82FA92F3D
:100F5000AA2F7F24013083120313A0002008B507B5
:100F6000350830020318B52FB62F652F3208031944
:100F7000BA2FBB2FBC2F76240A30831203133902F9
:100F80000318C32FC42FF12E3803031DC82FC92FF8
:100F9000E02F073037060319CE2FCF2FF12E390857
:100FA000A0003708223E84002008831380002A30E6
:100FB0001B25013083120313A0002008B707F12E70
:100FC00002303806031DE52FE62FF12E07303106DB
:100FD0000319EB2FEC2FF12E3908A0003108293E20
:100FE00084002008831380002A301B2501308312DF
:100FF0000313A0002008B107F12E002883019C2EC6
:02400E00183F59
:00000001FF
