:10000000FE2F00308A000408840A8207003402347C
:10001000043440348034503472346534733473346F
:1000200069346F346E34653420342A3420347034AB
:10003000613472346134203465346E347434723413
:100040006134723420346F347534203423342034D6
:100050007034613472346134203443346F346E341C
:100060006634693467347534723461347234003400
:1000700044346934673469347434653420346F34FB
:100080002034503449344E342034653420346134C3
:10009000703465347234743465342034233400345D
:1000A00044346934673469347434653420346F34CB
:1000B000203449344434203465342034613470347D
:1000C000653472347434653420342334003441345C
:1000D00063346534733473346F342034703465346E
:1000E00072346D3469347434693464346F34213457
:1000F0000034413463346534733473346F342034E2
:100100004E3465346734613464346F3421340034E0
:100B44000130E7258030E7250130E7257330D125D2
:100B54000800F1006400831603139C18B22DB32D12
:100B6400AC2D71089B003F30F00070089C051C14EC
:100B74001A080800F300F201731CC12DC22DC62D02
:100B84007008F1007108F2070310F00D0310F30C64
:100B94007308031DCE2DCF2DBE2D72080800F8005A
:100BA400F701DD2D7708780784000120092601303C
:100BB400F6007608F7077708780784000120003AE2
:100BC400031DE52DE62DD42D0800F5008312031333
:100BD400051475082B268312031386110430F400C0
:100BE400E430F300F30BF42DF40BF42D0000831226
:100BF400031305100430F400E430F300F30B002E6B
:100C0400F40B002E00008312031305140800F500F2
:100C140083120313051475082B26831203138615F8
:100C24000430F400E430F300F30B162EF40B162E0C
:100C340000008312031305100430F400E430F300C1
:100C4400F30B222EF40B222E00008312031305143F
:100C54000800F100831203130612F2017108F00078
:100C64007208073C013E382E0310F00CFF3E031DB2
:100C7400362E70183E2E422E831203138615452EEF
:100C8400831203138611061606120130F000700851
:100C9400F20708307202031C502E512E302E080029
:100CA400F200831603139C18582E592E532E7208E3
:100CB4009B0070089A003F30F10071089C05831274
:100CC400031303108B1F672E682E692E03148B13D6
:100CD400831603131C1555309D00AA309D009C14E7
:100CE4001C1183120313031C782E792E7A2E8B1772
:100CF400080083120313051086111A30F700F83028
:100D0400F600F60B832EF70B832E000083120313D9
:100D140005143030E7250730F7007D30F600F60B78
:100D2400912EF70B912E3030E725C730F6009A2E1E
:100D3400F60B992E9D2E9E2E3830E7250830E72598
:100D44000F30E7250130E7253830E7258030E725E7
:100D5400080083120313A001A101A201A3018316B9
:100D640003138E150730831203139F00303083164C
:100D740003138500E7308600FE30831203138500D9
:100D840086017B260030AB25FD007D08831203130A
:100D9400A5002508FD007D08A700270A031DD32E02
:100DA400D42ED52EF72EA801F0012708FD0004301B
:100DB4000310FD0DFF3E031DDA2E28087D07522681
:100DC4000130FD007D0883120313A80708302802B0
:100DD400031CED2EEE2ED62E0130FD007D08A70754
:100DE400270A031DF62EF72ED52E8830F400133073
:100DF400F5001F27FD007D0883120313A4002A3089
:100E04002406031D062F072F0F2F0530FD007D0834
:100E1400F000003052262A3009260030AB25FD00B0
:100E24007D0883120313A60005302606031D1B2F1D
:100E34001C2FF72EA225F72E0028F801F9010A30FD
:100E4400F6007608FB00831203130508F600760803
:100E5400FA00E22FFC017C08013E84000120F60028
:100E64007608831203138504861F392F3A2F662FC1
:100E74001A30F700F830F600F60B3E2FF70B3E2F32
:100E8400000083120313861F482F492F662F5F2FFC
:100E940003307C06031D4F2F502F552F2A30F600A8
:100EA4007608FB005F2F0330F6007608F0007C081C
:100EB400BC25013EF7007708FB0083120313861B51
:100EC400642F652F4A2FD32F061F692F6A2F912F66
:100ED4001A30F700F830F600F60B6E2FF70B6E2F72
:100EE400000083120313061F782F792F912F8A2F66
:100EF40003307C0603197F2F802F8A2F0330F600DE
:100F04007608F0007C08BC25023EF7007708FB0059
:100F140083120313061B8F2F902F7A2FD32F861E35
:100F2400942F952FC12F1A30F700F830F600F60BE6
:100F3400992FF70B992F000083120313861EA32FFA
:100F4400A42FC12FBA2F03307C06031DAA2FAB2F69
:100F5400B02F2330F6007608FB00BA2F0330F600DA
:100F64007608F0007C08BC25033EF7007708FB00F8
:100F740083120313861ABF2FC02FA52FD32F7C08EB
:100F8400013E84000120FF3AF60076088505013011
:100F9400F6007608FC0704307C02031CD22FD32F02
:100FA4002D2F1A30F700F830F600F60BD72FF70B79
:100FB400D72F00000530F8070318F90A0030F907A5
:100FC40075087902031DE82F74087802031CEB2FBF
:100FD400EC2FF22F74087504031DF12FF22FF82F54
:100FE4000A307B060319F72FF82F2C2F7A08831267
:0C0FF400031385007B0808008301AB2E6E
:02400E00183F59
:00000001FF
